:100000000C942A000C94D2050C94F6050C94170657
:100010000C9447000C9447000C9447000C94A305E3
:100020000C9447000C9447000C9447000C94470034
:100030000C9447000C9447000C9447000C94470024
:100040000C9447000C9447000C9447000C94470014
:100050000C94470011241FBECFE5D8E0DEBFCDBF12
:1000600010E0A8E6B0E001C01D92A037B107E1F7AB
:1000700010E0A0E6B0E0E8EDF9E202C005900D92D4
:10008000A836B107D9F70E94C6060C94EA140C945E
:100090000000EF92FF920F931F937B018C0120E0F1
:1000A00030E040E05FE40E94490388238CF0C801FF
:1000B000B70120E030E040E05FE40E94C1010E940F
:1000C000A9039B01AC01205030404040504806C07D
:1000D000C801B7010E94A9039B01AC01B901CA0183
:1000E0001F910F91FF90EF900895A0E0B0E0EBE733
:1000F000F0E00C94B314DC012B01FA019C919230D6
:1001000008F439C1EB018881823008F433C194309E
:1001100069F4843009F02FC111969C91119789815F
:10012000981709F428C1A0E6B0E025C1843009F48D
:1001300021C18230A9F4923009F01DC19A01AD01AC
:1001400088E0EA010990AE01E90109929E0181501F
:10015000C1F7E201898111969C918923818308C1AD
:10016000923009F407C112962D903C901397EB0141
:100170008A819B811496AD90BD90CD90DC901797AD
:10018000EC80FD800E811F819101281B390BB90184
:1001900037FF04C066277727621B730B6032710537
:1001A0000CF061C0121613066CF537014801062EDB
:1001B00004C096948794779467940A94D2F721E0C8
:1001C00030E040E050E004C0220F331F441F551FB1
:1001D0006A95D2F721503040404050402E213F21B7
:1001E00040235123211531054105510521F021E01E
:1001F00030E040E050E079018A01E628F72808293C
:1002000019293CC0232BD1F1260E371E350146019A
:10021000062E04C096948794779467940A94D2F734
:1002200021E030E040E050E004C0220F331F441FC3
:10023000551F6A95D2F721503040404050402A2146
:100240003B214C215D21211531054105510521F04E
:1002500021E030E040E050E059016A01A628B728CB
:10026000C828D9280BC0821593052CF01C01AA249C
:10027000BB24650103C0EE24FF24870111969C91E5
:10028000D20111968C91981709F445C0992339F041
:10029000A80197012A193B094C095D0906C0A6016E
:1002A00095012E193F09400B510B57FD08C01182D3
:1002B0003382228224833583468357831DC081E0A5
:1002C00081833382228288279927DC01821B930B4A
:1002D000A40BB50B84839583A683B7830DC0220F2F
:1002E000331F441F551F24833583468357838281E0
:1002F000938101979383828324813581468157813D
:10030000DA01C9010197A109B1098F5F9F4FAF4F72
:10031000BF4328F30BC0918333822282EA0CFB1C7B
:100320000C1D1D1DE482F5820683178383E0808304
:10033000248135814681578157FF1AC0C901AA27F8
:1003400097FDA095BA2F81709070A070B0705695EF
:10035000479537952795822B932BA42BB52B848318
:100360009583A683B7838281938101969383828349
:10037000DF0101C0D201CD01CDB7DEB7E2E10C94BF
:10038000CF14A0E2B0E0E7ECF1E00C94BF14698375
:100390007A838B839C832D833E834F835887E9E048
:1003A000EE2EF12CEC0EFD1ECE010196B7010E943F
:1003B000D2048E010F5E1F4FCE010596B8010E9438
:1003C000D2048A8991E089278A8BC701B801AE01DE
:1003D000475E5F4F0E9475000E94FD03A096E6E015
:1003E0000C94DB14A0E2B0E0E8EFF1E00C94BF1451
:1003F00069837A838B839C832D833E834F835887C5
:10040000F9E0EF2EF12CEC0EFD1ECE010196B701A6
:100410000E94D2048E010F5E1F4FCE010596B801D7
:100420000E94D204C701B801AE01475E5F4F0E942F
:1004300075000E94FD03A096E6E00C94DB14A0E298
:10044000B0E0E5E2F2E00C94B31469837A838B8325
:100450009C832D833E834F835887CE010196BE0136
:10046000675F7F4F0E94D204CE010596BE016F5E8A
:100470007F4F0E94D2049985923088F0898982301A
:10048000C8F0943019F4823051F404C0843029F457
:10049000923081F480E690E0C6C0923049F420E0CA
:1004A0009A858A89981321E02A87CE010996BBC0D4
:1004B000823049F420E09A858A89981321E02A8BBA
:1004C000CE014196B0C02D843E844F8458886D88FB
:1004D0007E888F88988CEE24FF248701AA24BB2471
:1004E000650140E050E060E070E0E0E0F0E0C10174
:1004F00081709070892BE9F0E60CF71C081D191D1E
:100500009A01AB012A0D3B1D4C1D5D1D80E090E062
:10051000A0E0B0E0E614F7040805190520F481E036
:1005200090E0A0E0B0E0BA01A901480F591F6A1F8E
:100530007B1FAA0CBB1CCC1CDD1C97FE08C081E0F5
:1005400090E0A0E0B0E0A82AB92ACA2ADB2A3196B6
:10055000E032F10549F0660C771C881C991C569412
:10056000479437942794C3CFFA85EA892B893C892D
:100570008B859C85280F391F2E5F3F4F17C0CA01FE
:1005800081709070892B61F016950795F794E79428
:1005900080E090E0A0E0B0E8E82AF92A0A2B1B2BC3
:1005A00076956795579547952F5F3F4F77FDE7CF36
:1005B0000CC0440F551F661F771F17FD4160EE0CDE
:1005C000FF1C001F111F21503040403090E05907A0
:1005D00090E0690790E4790760F32B8F3C8FDB0193
:1005E000CA018F779070A070B07080349105A1051A
:1005F000B10561F447FD0AC0E114F10401051105DC
:1006000029F0405C5F4F6F4F7F4F40781A8EFE1786
:1006100011F081E08A8F4D8F5E8F6F8F78A383E01A
:10062000898FCE0149960E94FD03A096E2E10C94C9
:10063000CF14A8E1B0E0EFE1F3E00C94BF146983BC
:100640007A838B839C832D833E834F83588789E0F5
:10065000E82EF12CEC0EFD1ECE010196B7010E9492
:10066000D2048E010F5E1F4FCE010596B8010E9485
:10067000D2048985823040F08989823028F0C70110
:10068000B8010E944A0501C08FEF6896E6E00C941D
:10069000DB14A8E1B0E0EFE4F3E00C94BF1469834D
:1006A0007A838B839C832D833E834F83588789E095
:1006B000E82EF12CEC0EFD1ECE010196B7010E9432
:1006C000D2048E010F5E1F4FCE010596B8010E9425
:1006D000D2048985823040F08989823028F0C701B0
:1006E000B8010E944A0501C08FEF6896E6E00C94BD
:1006F000DB14A8E1B0E0EFE7F3E00C94BF146983EA
:100700007A838B839C832D833E834F83588789E034
:10071000E82EF12CEC0EFD1ECE010196B7010E94D1
:10072000D2048E010F5E1F4FCE010596B8010E94C4
:10073000D2048985823040F08989823028F0C7014F
:10074000B8010E944A0501C081E06896E6E00C9479
:10075000DB14ACE0B0E0EFEAF3E00C94C31469837F
:100760007A838B839C83CE010196BE016B5F7F4FA2
:100770000E94D2048D81823061F1823050F1843048
:1007800021F48E81882351F12EC02F81388537FDC9
:1007900020C06E812F3131051CF06623F9F023C093
:1007A0008EE190E0821B930B29853A854B855C8511
:1007B00004C056954795379527958A95D2F76623B5
:1007C000B1F050954095309521953F4F4F4F5F4F79
:1007D0000EC020E030E040E050E009C02FEF3FEFD6
:1007E0004FEF5FE704C020E030E040E050E8B9019F
:1007F000CA012C96E2E00C94DF14DF92EF92FF9294
:100800000F931F93FC01E480F58006811781D1804E
:100810008081823048F480E090E0A0E1B0E0E82AF6
:10082000F92A0A2B1B2BA5C0843009F49FC0823003
:1008300021F4EE24FF24870105C0E114F104010531
:10084000110519F4E0E0F0E096C0628173819FEF3A
:10085000623879070CF05BC022E83FEF261B370BAC
:100860002A3131052CF020E030E040E050E02AC091
:10087000B801A701022E04C0769567955795479554
:100880000A94D2F781E090E0A0E0B0E004C0880FC5
:10089000991FAA1FBB1F2A95D2F70197A109B10979
:1008A0008E219F21A023B1230097A105B10521F03E
:1008B00081E090E0A0E0B0E09A01AB01282B392B59
:1008C0004A2B5B2BDA01C9018F779070A070B07052
:1008D00080349105A105B10539F427FF09C0205CDA
:1008E0003F4F4F4F5F4F04C0215C3F4F4F4F5F4F13
:1008F000E0E0F0E02030A0E03A07A0E04A07A0E402
:100900005A0710F0E1E0F0E079018A0127C0603871
:10091000710564F5FB01E158FF4FD801C7018F77DE
:100920009070A070B07080349105A105B10539F4C4
:10093000E7FE0DC080E490E0A0E0B0E004C08FE3EB
:1009400090E0A0E0B0E0E80EF91E0A1F1B1F17FFA1
:1009500005C016950795F794E794319687E01695AC
:100960000795F794E7948A95D1F705C0EE24FF2404
:100970008701EFEFF0E06E2F679566276795902F60
:100980009F77D794DD24D7948E2F8695492F462BB9
:10099000582F5D29B701CA011F910F91FF90EF9069
:1009A000DF900895FC01DB01408151812281622F9B
:1009B0006F7770E0221F2227221F9381892F880FD3
:1009C000822B282F30E0991F9927991F11969C930D
:1009D000119721153105A9F54115510561057105DD
:1009E00011F482E037C082E89FEF13969C938E93B8
:1009F00012979A01AB0167E0220F331F441F551F66
:100A00006A95D1F783E08C930DC0220F331F441FEA
:100A1000551F12968D919C911397019713969C9355
:100A20008E931297203080E0380780E0480780E4FA
:100A3000580758F314962D933D934D935C93179755
:100A400008952F3F310579F4411551056105710570
:100A500019F484E08C93089564FF03C081E08C93C3
:100A600012C01C9210C02F57304013963C932E9307
:100A7000129783E08C9387E0440F551F661F771F02
:100A80008A95D1F7706414964D935D936D937C9322
:100A9000179708951F93DC01FB019C91923008F495
:100AA00047C08081823008F443C0943051F41196DD
:100AB0001C91843099F58181682F70E0611B710968
:100AC0003FC0843021F0923031F48230B9F181811D
:100AD000882389F12DC011961C9111978230F1F075
:100AE00081811817D9F412962D913C911397828128
:100AF00093818217930794F028173907BCF0149656
:100B00008D919D910D90BC91A02D248135814681C0
:100B10005781281739074A075B0718F4112341F05A
:100B20000AC082179307A407B50740F4112319F0F0
:100B300061E070E005C06FEF7FEF02C060E070E041
:100B4000CB011F9108951F920F920FB60F9211249F
:100B50008F939F93DF93CF93CDB7DEB780916E00D5
:100B60008823B9F480916F00882351F08091680048
:100B7000909169000197909369008093680009C083
:100B8000809168009091690001969093690080932C
:100B90006800CF91DF919F918F910F900FBE0F90C2
:100BA0001F9018951F920F920FB60F921124EF937A
:100BB000FF93DF93CF93CDB7DEB710926900109209
:100BC000680010926B0010926A0010926D001092F3
:100BD0006C00ECE4F0E011821082CF91DF91FF9184
:100BE000EF910F900FBE0F901F9018951F920F92CC
:100BF0000FB60F9211248F93AF93BF93EF93FF9390
:100C0000DF93CF93CDB7DEB7AEE4B0E0EEE4F0E033
:100C10008081887F8C93CF91DF91FF91EF91BF917D
:100C2000AF918F910F900FBE0F901F9018951F924C
:100C30000F920FB60F9211248F93EF93FF93DF93D0
:100C4000CF93CDB7DEB7EEE4F0E08BE08083CF91B9
:100C5000DF91FF91EF918F910F900FBE0F901F903A
:100C60001895DF93CF9300D0CDB7DEB79A838983F1
:100C7000AFE5B0E0EFE5F0E0808180688C93EFE4D1
:100C8000F0E088E08083EEE4F0E08BE08083ECE449
:100C9000F0E011821082EAE4F0E089819A81918388
:100CA0008083A9E5B0E0E9E5F0E0808180618C9384
:100CB0000F900F90CF91DF910895DF93CF93CDB731
:100CC000DEB7AFE5B0E0EFE5F0E0808180688C93BF
:100CD000A5E5B0E0E5E5F0E0808182608C93ABE5CE
:100CE000B0E0EBE5F0E0808180648C93A1E3B0E0BC
:100CF000E1E3F0E08081887F8C93CF91DF910895CC
:100D0000DF93CF93CDB7DEB7AFE5B0E0EFE5F0E02E
:100D1000808180688C93A5E5B0E0E5E5F0E0808116
:100D200088608C93ABE5B0E0EBE5F0E08081806813
:100D30008C93A1E3B0E0E1E3F0E08081807F8C93CD
:100D4000CF91DF910895DF93CF93CDB7DEB7AFE5B5
:100D5000B0E0EFE5F0E0808180688C93A4E5B0E03E
:100D6000E4E5F0E0808180788C93ABE5B0E0EBE5E2
:100D7000F0E0808180628C93A7E3B0E0E7E3F0E0ED
:100D80008081887F8C93CF91DF9108950F931F937B
:100D9000DF93CF93CDB7DEB7CC5DD0400FB6F894DC
:100DA000DEBF0FBECDBFFE01E154FF4F1082FE013A
:100DB000E254FF4F87E08083FE01E354FF4F10822F
:100DC000FE01E454FF4F1082FE01E554FF4F1082F4
:100DD000FE01E654FF4F1082FE01E754FF4F1082E0
:100DE000A4E3B0E0E4E3F0E080818F608C93A4E3BF
:100DF000B0E0E4E3F0E0808180618C93AAE3B0E0AE
:100E0000EAE3F0E080818F638C93A1E3B0E0E1E35B
:100E1000F0E08081807E8C93A1E3B0E0E1E3F0E03C
:100E20008081807C8C93A1E3B0E0E1E3F0E08081FD
:100E300080788C93E1E3F0E02081E1E3F0E0108240
:100E4000A1E3B0E0E1E3F0E080818E7F8C93AAE340
:100E5000B0E0EAE3F0E0808180648C93A2E3B0E04C
:100E6000E2E3F0E08081816F8C93A5E3B0E0E5E3FD
:100E7000F0E08081807F8C93A5E3B0E0E5E3F0E0D3
:100E8000808180618C93ABE3B0E0EBE3F0E08081A4
:100E9000807C8C93ABE3B0E0EBE3F0E08081807C7E
:100EA0008C93A2E3B0E0E2E3F0E0808184608C9375
:100EB000A8E3B0E0E8E3F0E0808184608C930E94D6
:100EC0005D060E9480060E94A30689E09DE30E94C1
:100ED000310680916800909169008C3391056CF027
:100EE00080916A0090916B00019690936B008093C3
:100EF0006A00109269001092680080916A009091D7
:100F00006B008C3391056CF080916C0090916D00BA
:100F1000019690936D0080936C0010926B0010927C
:100F20006A0080916C0090916D008831910564F0A9
:100F3000109269001092680010926B0010926A0083
:100F400010926D0010926C00FE01E154FF4F81E0A1
:100F50008083ABE3B0E0EBE3F0E08081982F907CFE
:100F6000FE01E154FF4F80818F73892B8C9305E341
:100F700010E0E5E3F0E08081482F407F8091680039
:100F8000909169002AE030E0B9010E948C148F70C2
:100F9000842BF801808380916E008823B1F125E3D2
:100FA00030E0C652DF4F39832883CA5DD040E5E385
:100FB000F0E080818061C752DF4F8883C95DD040F7
:100FC000FE01E254FF4F8081882339F43FEEC8527E
:100FD000DF4F3883C85DD04006C08FEFC852DF4F67
:100FE0008883C85DD040C752DF4F8881C95DD0403B
:100FF000C852DF4F9881C85DD0408923C652DF4F69
:10100000E881F981CA5DD0408083DE01A154BF4FE1
:10101000FE01E154FF4F8081880F8C93FE01ED5457
:10102000FF4F80E090E0A0ECB0E480839183A28346
:10103000B3838E0101551F4FFE01ED54FF4F6081B8
:1010400071818281938120E030E04AE753E40E947D
:101050001F02DC01CB01F80180839183A283B3835B
:10106000FE01E155FF4F608171818281938120E013
:1010700030E040E85FE30E947903882344F4FE01F6
:10108000E355FF4F81E090E09183808364C0FE01CF
:10109000E155FF4F608171818281938120E03FEFB4
:1010A0004FE757E40E94190318160CF043C0FE01E5
:1010B000ED54FF4F608171818281938120E030E0A7
:1010C00040E251E40E941F02DC01CB018E01035576
:1010D0001F4FBC01CD010E944900DC01CB01F8018A
:1010E000918380831FC0FE01E555FF4F89E190E0A9
:1010F00091838083FE01E555FF4F808191810197A7
:10110000F1F7FE01E555FF4F91838083DE01A35582
:10111000BF4FFE01E355FF4F8081918101971196EA
:101120009C938E93FE01E355FF4F80819181009740
:10113000D1F627C08E0103551F4FFE01E155FF4F29
:1011400060817181828193810E944900DC01CB0121
:10115000F80191838083DE01A755BF4FFE01E3555F
:10116000FF4F808191818D939C93FE01E755FF4F46
:10117000808191810197F1F7FE01E755FF4F91833F
:101180008083ABE3B0E0EBE3F0E08081982F907CCC
:10119000FE01E154FF4F80818F73892B8C9305E30F
:1011A00010E0E5E3F0E08081482F407F8091680007
:1011B000909169002AE030E0B9010E948C14CB01C3
:1011C0008F70842BF801808380916E008823B1F1A9
:1011D00025E330E0CA52DF4F39832883C65DD04013
:1011E000E5E3F0E080818061CB52DF4F8883C55D0D
:1011F000D040FE01E254FF4F8081813039F43FEE50
:10120000CC52DF4F3883C45DD04006C08FEFCC5244
:10121000DF4F8883C45DD040CB52DF4F8881C55DEE
:10122000D040CC52DF4F9881C45DD0408923CA5250
:10123000DF4FE881F981C65DD0408083DE01A15493
:10124000BF4FFE01E154FF4F8081880F8C93FE0158
:10125000EB55FF4F80E090E0A0ECB0E480839183F9
:10126000A283B3838E010F551F4FFE01EB55FF4F35
:10127000608171818281938120E030E04AE753E40C
:101280000E941F02DC01CB01F80180839183A283BD
:10129000B383FE01EF55FF4F60817181828193819D
:1012A00020E030E040E85FE30E947903882344F4C3
:1012B000FE01E156FF4F81E090E09183808364C09E
:1012C000FE01EF55FF4F608171818281938120E0A3
:1012D0003FEF4FE757E40E94190318160CF043C084
:1012E000FE01EB55FF4F608171818281938120E087
:1012F00030E040E251E40E941F02DC01CB018E018C
:1013000001561F4FBC01CD010E944900DC01CB01F9
:10131000F801918380831FC0FE01E356FF4F89E1EE
:1013200090E091838083FE01E356FF4F808191819D
:101330000197F1F7FE01E356FF4F91838083DE01B1
:10134000A156BF4FFE01E156FF4F80819181019769
:1013500011969C938E93FE01E156FF4F80819181FF
:101360000097D1F627C08E0101561F4FFE01EF55A1
:10137000FF4F60817181828193810E944900DC016D
:10138000CB01F80191838083DE01A556BF4FFE019A
:10139000E156FF4F808191818D939C93FE01E5562C
:1013A000FF4F808191810197F1F7FE01E556FF4FD4
:1013B00091838083ABE3B0E0EBE3F0E08081982F92
:1013C000907CFE01E154FF4F80818F73892B8C93B9
:1013D00005E310E0E5E3F0E08081482F407F809155
:1013E0006A0090916B002AE030E0B9010E948C14F1
:1013F0008F70842BF801808380916E008823B1F177
:1014000025E330E0CE52DF4F39832883C25DD040E0
:10141000E5E3F0E080818061CF52DF4F8883C15DDA
:10142000D040FE01E254FF4F8081823039F43FEE1C
:10143000C053DF4F3883C05DD04006C08FEFC0532C
:10144000DF4F8883C05DD040CF52DF4F8881C15DC0
:10145000D040C053DF4F9881C05DD0408923CE5229
:10146000DF4FE881F981C25DD0408083DE01A15465
:10147000BF4FFE01E154FF4F8081880F8C93FE0126
:10148000E956FF4F80E090E0A0ECB0E480839183C8
:10149000A283B3838E010D561F4FFE01E956FF4F05
:1014A000608171818281938120E030E04AE753E4DA
:1014B0000E941F02DC01CB01F80180839183A2838B
:1014C000B383FE01ED56FF4F60817181828193816C
:1014D00020E030E040E85FE30E947903882344F491
:1014E000FE01EF56FF4F81E090E09183808364C05E
:1014F000FE01ED56FF4F608171818281938120E072
:101500003FEF4FE757E40E94190318160CF043C051
:10151000FE01E956FF4F608171818281938120E055
:1015200030E040E251E40E941F02DC01CB018E0159
:101530000F561F4FBC01CD010E944900DC01CB01B9
:10154000F801918380831FC0FE01E157FF4F89E1BD
:1015500090E091838083FE01E157FF4F808191816C
:101560000197F1F7FE01E157FF4F91838083DE0180
:10157000AF56BF4FFE01EF56FF4F8081918101971B
:1015800011969C938E93FE01EF56FF4F80819181BF
:101590000097D1F627C08E010F561F4FFE01ED5662
:1015A000FF4F60817181828193810E944900DC013B
:1015B000CB01F80191838083DE01A357BF4FFE0169
:1015C000EF56FF4F808191818D939C93FE01E357ED
:1015D000FF4F808191810197F1F7FE01E357FF4FA3
:1015E00091838083ABE3B0E0EBE3F0E08081982F60
:1015F000907CFE01E154FF4F80818F73892B8C9387
:1016000005E310E0E5E3F0E08081482F407F809122
:101610006A0090916B002AE030E0B9010E948C14BE
:10162000CB018F70842BF801808380916E0088231A
:10163000B1F125E330E0C253DF4F39832883CE5C1C
:10164000D040E5E3F0E080818061C353DF4F8883C1
:10165000CD5CD040FE01E254FF4F8081833039F4ED
:101660003FEEC453DF4F3883CC5CD04006C08FEFD1
:10167000C453DF4F8883CC5CD040C353DF4F888195
:10168000CD5CD040C453DF4F9881CC5CD0408923DF
:10169000C253DF4FE881F981CE5CD0408083DE0108
:1016A000A154BF4FFE01E154FF4F8081880F8C93FE
:1016B000FE01E757FF4F80E090E0A0ECB0E48083AC
:1016C0009183A283B3838E010B571F4FFE01E7570F
:1016D000FF4F608171818281938120E030E04AE791
:1016E00053E40E941F02DC01CB01F8018083918347
:1016F000A283B383FE01EB57FF4F6081718182812A
:10170000938120E030E040E85FE30E947903882382
:1017100044F4FE01ED57FF4F81E090E09183808318
:1017200064C0FE01EB57FF4F60817181828193811C
:1017300020E03FEF4FE757E40E94190318160CF022
:1017400043C0FE01E757FF4F608171818281938121
:1017500020E030E040E251E40E941F02DC01CB01B6
:101760008E010D571F4FBC01CD010E944900DC01C5
:10177000CB01F801918380831FC0FE01EF57FF4F1B
:1017800089E190E091838083FE01EF57FF4F8081D4
:1017900091810197F1F7FE01EF57FF4F918380830D
:1017A000DE01AD57BF4FFE01ED57FF4F80819181A4
:1017B000019711969C938E93FE01ED57FF4F808108
:1017C00091810097D1F627C08E010D571F4FFE0162
:1017D000EB57FF4F60817181828193810E944900A4
:1017E000DC01CB01F80191838083DE01A158BF4F5A
:1017F000FE01ED57FF4F808191818D939C93FE01F7
:10180000E158FF4F808191810197F1F7FE01E15886
:10181000FF4F91838083ABE3B0E0EBE3F0E08081A6
:10182000982F907CFE01E154FF4F80818F73892BAC
:101830008C9305E310E0E5E3F0E08081482F407FE2
:1018400080916C0090916D002AE030E0B9010E9417
:101850008C148F70842BF801808380916E00882314
:10186000B1F125E330E0C653DF4F39832883CA5CEA
:10187000D040E5E3F0E080818061C753DF4F88838B
:10188000C95CD040FE01E254FF4F8081843039F4BE
:101890003FEEC853DF4F3883C85CD04006C08FEF9F
:1018A000C853DF4F8883C85CD040C753DF4F88815F
:1018B000C95CD040C853DF4F9881C85CD0408923B1
:1018C000C653DF4FE881F981CA5CD0408083DE01D6
:1018D000A154BF4FFE01E154FF4F8081880F8C93CC
:1018E000FE01E558FF4F80E090E0A0ECB0E480837B
:1018F0009183A283B3838E0109581F4FFE01E558DF
:10190000FF4F608171818281938120E030E04AE75E
:1019100053E40E941F02DC01CB01F8018083918314
:10192000A283B383FE01E958FF4F608171818281F8
:10193000938120E030E040E85FE30E947903882350
:1019400044F4FE01EB58FF4F81E090E091838083E7
:1019500064C0FE01E958FF4F6081718182819381EB
:1019600020E03FEF4FE757E40E94190318160CF0F0
:1019700043C0FE01E558FF4F6081718182819381F0
:1019800020E030E040E251E40E941F02DC01CB0184
:101990008E010B581F4FBC01CD010E944900DC0194
:1019A000CB01F801918380831FC0FE01ED58FF4FEA
:1019B00089E190E091838083FE01ED58FF4F8081A3
:1019C00091810197F1F7FE01ED58FF4F91838083DC
:1019D000DE01AB58BF4FFE01EB58FF4F8081918174
:1019E000019711969C938E93FE01EB58FF4F8081D7
:1019F00091810097D1F627C08E010B581F4FFE0131
:101A0000E958FF4F60817181828193810E94490072
:101A1000DC01CB01F80191838083DE01AF58BF4F19
:101A2000FE01EB58FF4F808191818D939C93FE01C5
:101A3000EF58FF4F808191810197F1F7FE01EF5838
:101A4000FF4F91838083ABE3B0E0EBE3F0E0808174
:101A5000982F907CFE01E154FF4F80818F73892B7A
:101A60008C9305E310E0E5E3F0E08081482F407FB0
:101A700080916C0090916D002AE030E0B9010E94E5
:101A80008C14CB018F70842BF801808380916E00C1
:101A90008823B1F125E330E0CA53DF4F398328832F
:101AA000C65CD040E5E3F0E080818061CB53DF4F3E
:101AB0008883C55CD040FE01E254FF4F80818530B1
:101AC00039F43FEECC53DF4F3883C45CD04006C0BE
:101AD0008FEFCC53DF4F8883C45CD040CB53DF4FB4
:101AE0008881C55CD040CC53DF4F9881C45CD04026
:101AF0008923CA53DF4FE881F981C65CD0408083D7
:101B0000DE01A154BF4FFE01E154FF4F8081880FD9
:101B10008C93FE01E359FF4F80E090E0A0ECB0E42D
:101B200080839183A283B3838E0107591F4FFE01E7
:101B3000E359FF4F608171818281938120E030E021
:101B40004AE753E40E941F02DC01CB01F8018083C5
:101B50009183A283B383FE01E759FF4F60817181B6
:101B60008281938120E030E040E85FE30E947903C6
:101B7000882344F4FE01E959FF4F81E090E091830E
:101B8000808364C0FE01E759FF4F608171818281CB
:101B9000938120E03FEF4FE757E40E9419031816A6
:101BA0000CF043C0FE01E359FF4F608171818281D7
:101BB000938120E030E040E251E40E941F02DC010A
:101BC000CB018E0109591F4FBC01CD010E94490074
:101BD000DC01CB01F801918380831FC0FE01EB592A
:101BE000FF4F89E190E091838083FE01EB59FF4F25
:101BF000808191810197F1F7FE01EB59FF4F9183AD
:101C00008083DE01A959BF4FFE01E959FF4F808152
:101C10009181019711969C938E93FE01E959FF4F94
:101C2000808191810097D1F628C08E0109591F4FFC
:101C3000FE01E759FF4F60817181828193810E948B
:101C40004900DC01CB01F80191838083DE01AD59AD
:101C5000BF4FFE01E959FF4F8081918111969C93FE
:101C60008E93FE01ED59FF4F808191810197F1F72D
:101C7000FE01ED59FF4F91838083209168003091E0
:101C8000690080916A0090916B00280F391F809144
:101C90006C0090916D00820F931F009709F0B0C106
:101CA00080916F00882309F4ABC1FE01E954FF4F16
:101CB000118210828EC1ABE3B0E0EBE3F0E08081F3
:101CC00080648C93ABE3B0E0EBE3F0E080818F6362
:101CD0008C93FE01E15AFF4F80E090E0A8E4B3E46A
:101CE00080839183A283B3838E01055A1F4FFE0127
:101CF000E15AFF4F608171818281938120E030E061
:101D00004AE753E40E941F02DC01CB01F801808303
:101D10009183A283B383FE01E55AFF4F60817181F5
:101D20008281938120E030E040E85FE30E94790304
:101D3000882344F4FE01E75AFF4F81E090E091834D
:101D4000808364C0FE01E55AFF4F6081718182810A
:101D5000938120E03FEF4FE757E40E9419031816E4
:101D60000CF043C0FE01E15AFF4F60817181828116
:101D7000938120E030E040E251E40E941F02DC0148
:101D8000CB018E01075A1F4FBC01CD010E944900B3
:101D9000DC01CB01F801918380831FC0FE01E95A69
:101DA000FF4F89E190E091838083FE01E95AFF4F64
:101DB000808191810197F1F7FE01E95AFF4F9183EC
:101DC0008083DE01A75ABF4FFE01E75AFF4F808193
:101DD0009181019711969C938E93FE01E75AFF4FD4
:101DE000808191810097D1F627C08E01075A1F4F3D
:101DF000FE01E55AFF4F60817181828193810E94CB
:101E00004900DC01CB01F80191838083DE01AB5AEC
:101E1000BF4FFE01E75AFF4F808191818D939C93C4
:101E2000FE01EB5AFF4F808191810197F1F7FE018E
:101E3000EB5AFF4F91838083ABE3B0E0EBE3F0E03C
:101E4000808180788C93ABE3B0E0EBE3F0E08081BD
:101E5000807C8C93FE01EF5AFF4F80E090E0A8E475
:101E6000B3E480839183A283B3838E01035B1F4F0E
:101E7000FE01EF5AFF4F608171818281938120E0E2
:101E800030E04AE753E40E941F02DC01CB01F80175
:101E900080839183A283B383FE01E35BFF4F608164
:101EA00071818281938120E030E040E85FE30E940D
:101EB0007903882344F4FE01E55BFF4F81E090E065
:101EC0009183808364C0FE01E35BFF4F6081718179
:101ED0008281938120E03FEF4FE757E40E9419038E
:101EE00018160CF043C0FE01EF5AFF4F608171815C
:101EF0008281938120E030E040E251E40E941F02A1
:101F0000DC01CB018E01055B1F4FBC01CD010E949E
:101F10004900DC01CB01F801918380831FC0FE01E1
:101F2000E75BFF4F89E190E091838083FE01E75BEF
:101F3000FF4F808191810197F1F7FE01E75BFF4F31
:101F400091838083DE01A55BBF4FFE01E55BFF4F00
:101F500080819181019711969C938E93FE01E55BA0
:101F6000FF4F808191810097D1F627C08E01055BDC
:101F70001F4FFE01E35BFF4F60817181828193817E
:101F80000E944900DC01CB01F80191838083DE01CE
:101F9000A95BBF4FFE01E55BFF4F808191818D936F
:101FA0009C93FE01E95BFF4F808191810197F1F7DE
:101FB000FE01E95BFF4F91838083DE01A954BF4F8F
:101FC000FE01E954FF4F80819181019611969C9307
:101FD0008E93FE01E954FF4F8081918188309105F5
:101FE0000CF469CE10926F00109269001092680094
:101FF00010926B0010926A0010926D0010926C00AB
:10200000E0E3F0E08081882F90E08071907000978D
:1020100009F0ADC0FE01ED5BFF4F80E090E0A0EF66
:10202000B1E480839183A283B3838E01015C1F4F4F
:10203000FE01ED5BFF4F608171818281938120E021
:1020400030E04AE753E40E941F02DC01CB01F801B3
:1020500080839183A283B383FE01FF9660817181A7
:102060008281938120E030E040E85FE30E947903C1
:1020700088232CF481E090E09EAF8DAF46C0FE0136
:10208000FF96608171818281938120E03FEF4FE76D
:1020900057E40E941903181664F5FE01ED5BFF4F2B
:1020A000608171818281938120E030E040E251E4DF
:1020B0000E941F02DC01CB01BC01CD010E9449003E
:1020C000DC01CB019EAF8DAF0FC089E190E09CAFEA
:1020D0008BAF8BAD9CAD0197F1F79CAF8BAF8DAD06
:1020E0009EAD01979EAF8DAF8DAD9EAD009769F708
:1020F00016C0FE01FF9660817181828193810E94EA
:102100004900DC01CB019EAF8DAF8DAD9EAD9AAF86
:1021100089AF89AD9AAD0197F1F79AAF89AFE0E346
:10212000F0E08081882F90E080719070009719F521
:10213000FE01E354FF4F80818823E9F4FE01E3545C
:10214000FF4F81E080831092690010926800109226
:102150006B0010926A0010926D0010926C00FE01EC
:10216000E254FF4F108281E080936E0004C0FE01B4
:10217000E354FF4F1082E0E3F0E08081882F90E08D
:1021800080729070009709F01CC180916E008823C6
:1021900009F417C180E090E0A0EFB1E48DAB9EABF5
:1021A000AFABB8AF6DA97EA98FA998AD20E030E0A4
:1021B0004AE753E40E941F02DC01CB0189AB9AABD2
:1021C000ABABBCAB69A97AA98BA99CA920E030E094
:1021D00040E85FE30E94790388232CF481E090E0DB
:1021E00098AB8FA73FC069A97AA98BA99CA920E0C9
:1021F0003FEF4FE757E40E94190318164CF56DA9FD
:102200007EA98FA998AD20E030E040E251E40E9421
:102210001F02DC01CB01BC01CD010E944900DC01A1
:10222000CB0198AB8FA70FC089E190E09EA78DA747
:102230008DA59EA50197F1F79EA78DA78FA598A9BB
:10224000019798AB8FA78FA598A9009769F714C03D
:1022500069A97AA98BA99CA90E944900DC01CB013C
:1022600098AB8FA78FA598A99CA78BA78BA59CA59A
:102270000197F1F79CA78BA7E0E3F0E08081882F1E
:1022800090E080729070009709F09FC080916E007E
:10229000882309F49AC0FE01E454FF4F808188230B
:1022A00009F093C0FE01E454FF4F81E08083FE01FA
:1022B000E254FF4F8081282F30E0CE53DF4F398327
:1022C0002883C25CD040CE53DF4F88819981C25CA5
:1022D000D0408230910509F44CC0CE53DF4FE881E5
:1022E000F981C25CD040E330F1059CF4CE53DF4F5E
:1022F00028813981C25CD0402115310531F1CE539E
:10230000DF4F88819981C25CD0408130910539F1DD
:102310005CC0CE53DF4FE881F981C25CD040E4302D
:10232000F105D9F1CE53DF4F28813981C25CD0400D
:102330002430310544F1CE53DF4F88819981C25C4E
:10234000D0408530910599F140C08091680090910E
:1023500069000196909369008093680036C080916F
:102360006800909169000A969093690080936800D4
:102370002CC080916A0090916B00019690936B0045
:1023800080936A0022C080916A0090916B000A9647
:1023900090936B0080936A0018C080916C009091BC
:1023A0006D00019690936D0080936C000EC080913B
:1023B0006C0090916D000A9690936D0080936C0074
:1023C00004C0FE01E454FF4F1082E0E3F0E080819E
:1023D000882F90E080749070009709F039C1809147
:1023E0006E00882309F434C180E090E0A0EFB1E4EE
:1023F0008FA398A7A9A7BAA76FA178A589A59AA521
:1024000020E030E04AE753E40E941F02DC01CB01E8
:102410008BA39CA3ADA3BEA36BA17CA18DA19EA108
:1024200020E030E040E85FE30E94790388232CF449
:1024300081E090E09AA389A33FC06BA17CA18DA10C
:102440009EA120E03FEF4FE757E40E9419031816C2
:102450004CF56FA178A589A59AA520E030E040E26F
:1024600051E40E941F02DC01CB01BC01CD010E949E
:102470004900DC01CB019AA389A30FC089E190E058
:1024800098A38F8F8F8D98A10197F1F798A38F8FC5
:1024900089A19AA101979AA389A389A19AA10097DA
:1024A00069F714C06BA17CA18DA19EA10E94490077
:1024B000DC01CB019AA389A389A19AA19E8F8D8F5C
:1024C0008D8D9E8D0197F1F79E8F8D8FE0E3F0E06B
:1024D0008081882F90E080749070009709F0BCC0D4
:1024E00080916E00882309F4B7C0FE01E554FF4FC8
:1024F0008081882309F0B0C0FE01E554FF4F81E0E0
:102500008083FE01E254FF4F8081E82FF0E0C05449
:10251000DF4FF983E883C05CD040C054DF4F28818F
:102520003981C05CD0402230310509F44BC0C05421
:10253000DF4F88819981C05CD0408330910594F44D
:10254000C054DF4FE881F981C05CD040309731F151
:10255000C054DF4F28813981C05CD0402130310523
:1025600039F157C0C054DF4F88819981C05CD04099
:1025700084309105D9F1C054DF4FE881F981C05C06
:10258000D040E430F10544F1C054DF4F2881398157
:10259000C05CD0402530310599F13BC08091680086
:1025A000909169000197909369008093680031C011
:1025B00080916800909169000A97909369008093D8
:1025C000680027C080916A0090916B0001979093FA
:1025D0006B0080936A001DC080916A0090916B002F
:1025E0000A9790936B0080936A0013C080916C00EF
:1025F00090916D00019790936D0080936C0009C0DD
:1026000080916C0090916D000A9790936D0080937B
:102610006C008091680090916900992324F41092D5
:1026200069001092680080916A0090916B00992374
:1026300024F410926B0010926A0080916C009091CB
:102640006D0099234CF410926D0010926C0004C040
:10265000FE01E554FF4F1082E0E3F0E08081882323
:102660000CF49AC080916E00882309F495C080E034
:1026700090E0A0EFB1E4898F9A8FAB8FBC8F698D0A
:102680007A8D8B8D9C8D20E030E04AE753E40E94E8
:102690001F02DC01CB018D8B9E8BAF8BB88F6D89B8
:1026A0007E898F89988D20E030E040E85FE30E94CA
:1026B000790388232CF481E090E09C8B8B8B3FC0C6
:1026C0006D897E898F89988D20E03FEF4FE757E431
:1026D0000E94190318164CF5698D7A8D8B8D9C8D8F
:1026E00020E030E040E251E40E941F02DC01CB0117
:1026F000BC01CD010E944900DC01CB019C8B8B8B7E
:102700000FC089E190E09A8B898B89899A8901971A
:10271000F1F79A8B898B8B899C8901979C8B8B8B8A
:102720008B899C89009769F714C06D897E898F8990
:10273000988D0E944900DC01CB019C8B8B8B8B898F
:102740009C89988B8F878F8598890197F1F7988B53
:102750008F87E0E3F0E08081882314F180916E00A0
:102760008823F1F0FE01E654FF4F80818823C1F4F5
:10277000FE01E254FF4F87E08083FE01E654FF4FE5
:1027800081E0808310926E0081E080936F00ECE422
:10279000F0E01182108204C0FE01E654FF4F108267
:1027A000E0E3F0E08081882F90E0817090700097E6
:1027B00009F0ACC080916E00882309F4A7C080E0C6
:1027C00090E0A0EFB1E48B879C87AD87BE876B85D7
:1027D0007C858D859E8520E030E04AE753E40E94A9
:1027E0001F02DC01CB018F839887A987BA876F818D
:1027F000788589859A8520E030E040E85FE30E9493
:10280000790388232CF481E090E09E838D833FC080
:102810006F81788589859A8520E03FEF4FE757E4FF
:102820000E94190318164CF56B857C858D859E8555
:1028300020E030E040E251E40E941F02DC01CB01C5
:10284000BC01CD010E944900DC01CB019E838D8338
:102850000FC089E190E09C838B838B819C810197E1
:10286000F1F79C838B838D819E8101979E838D835D
:102870008D819E81009769F714C06F817885898565
:102880009A850E944900DC01CB019E838D838D8156
:102890009E819A83898389819A810197F1F79A832E
:1028A0008983E0E3F0E08081882F90E08170907070
:1028B000009711F00C94690780916E00882311F441
:1028C0000C946907FE01E754FF4F8081882311F0C3
:1028D0000C946907FE01E754FF4F81E08083DE011D
:1028E000A254BF4FFE01E254FF4F80818F5F8C9353
:1028F000FE01E254FF4F8081863011F00C9469078D
:10290000FE01E254FF4F10820C946907FE01E75468
:10291000FF4F10820C94690797FB092E07260AD0F7
:1029200077FD04D00CD006D000201AF47095619584
:102930007F4F0895F6F7909581959F4F0895AA1BB4
:10294000BB1B51E107C0AA1FBB1FA617B70710F09A
:10295000A61BB70B881F991F5A95A9F780959095CC
:10296000BC01CD0108952F923F924F925F926F92DA
:102970007F928F929F92AF92BF92CF92DF92EF920F
:10298000FF920F931F93CF93DF93CDB7DEB7CA1B90
:10299000DB0B0FB6F894DEBF0FBECDBF09942A88BB
:1029A000398848885F846E847D848C849B84AA8463
:1029B000B984C884DF80EE80FD800C811B81AA81F0
:1029C000B981CE0FD11D0FB6F894DEBF0FBECDBFBB
:0829D000ED010895F894FFCF1A
:0829D8000000000000000000F7
:00000001FF
